Name     Cnt25b;
PartNo   atv2500b;
Date     12/06/93;
Revision 01;
Designer Joe PLD;
Company  Atmel Corporation;
Assembly U00;
Location San Jose;
Device   V2500B;


ORDER: CLK, LD, CE, RST, %1, DIN15, DIN14, DIN13, DIN12, DIN11, DIN10, DIN9, DIN8, DIN7, DIN6, DIN5, DIN4, DIN3, DIN2, DIN1, DIN0, %2, A15, A14, A13, A12, A11, A10, A9, A8, A7, A6, A5, A4, A3, A2, A1, A0, %1, B15, B14, B13, B12, B11, B10, B9, B8, B7, B6, B5, B4, B3, B2, B1, B0, %1, Q15, Q14, Q13, Q12, Q11, Q10, Q9, Q8, Q7, Q6, Q5, Q4, Q3, Q2, Q1, Q0; 


VECTORS:
01100000000000000000LLLLLLLLLLLLLLLLLLLLLLLLLLLLLLLLLLLLLLLLLLLLLLLL
C0100000000000000000LLLLLLLLLLLLLLLHLLLLLLLLLLLLLLLHLLLLLLLLLLLLLLLH
C0100000000000000000LLLLLLLLLLLLLLHLLLLLLLLLLLLLLLHLLLLLLLLLLLLLLLHL
C0100000000000000000LLLLLLLLLLLLLLHHLLLLLLLLLLLLLLHHLLLLLLLLLLLLLLHH
C0100000000000000000LLLLLLLLLLLLLHLLLLLLLLLLLLLLLHLLLLLLLLLLLLLLLHLL
C0100000000000000000LLLLLLLLLLLLLHLHLLLLLLLLLLLLLHLHLLLLLLLLLLLLLHLH
C0100000000000000000LLLLLLLLLLLLLHHLLLLLLLLLLLLLLHHLLLLLLLLLLLLLLHHL
C0100000000000000000LLLLLLLLLLLLLHHHLLLLLLLLLLLLLHHHLLLLLLLLLLLLLHHH
C0100000000000000000LLLLLLLLLLLLHLLLLLLLLLLLLLLLHLLLLLLLLLLLLLLLHLLL
C0100000000000000000LLLLLLLLLLLLHLLHLLLLLLLLLLLLHLLHLLLLLLLLLLLLHLLH
C0100000000000000000LLLLLLLLLLLLHLHLLLLLLLLLLLLLHLHLLLLLLLLLLLLLHLHL
C0100000000000000000LLLLLLLLLLLLHLHHLLLLLLLLLLLLHLHHLLLLLLLLLLLLHLHH
C0100000000000000000LLLLLLLLLLLLHHLLLLLLLLLLLLLLHHLLLLLLLLLLLLLLHHLL
C0100000000000000000LLLLLLLLLLLLHHLHLLLLLLLLLLLLHHLHLLLLLLLLLLLLHHLH
C0100000000000000000LLLLLLLLLLLLHHHLLLLLLLLLLLLLHHHLLLLLLLLLLLLLHHHL
C0100000000000000000LLLLLLLLLLLLHHHHLLLLLLLLLLLLHHHHLLLLLLLLLLLLHHHH
C0100000000000000000LLLLLLLLLLLHLLLLLLLLLLLLLLLHLLLLLLLLLLLLLLLHLLLL
C0100000000000000000LLLLLLLLLLLHLLLHLLLLLLLLLLLHLLLHLLLLLLLLLLLHLLLH
C0100000000000000000LLLLLLLLLLLHLLHLLLLLLLLLLLLHLLHLLLLLLLLLLLLHLLHL
C0100000000000000000LLLLLLLLLLLHLLHHLLLLLLLLLLLHLLHHLLLLLLLLLLLHLLHH
C0100000000000000000LLLLLLLLLLLHLHLLLLLLLLLLLLLHLHLLLLLLLLLLLLLHLHLL
C0100000000000000000LLLLLLLLLLLHLHLHLLLLLLLLLLLHLHLHLLLLLLLLLLLHLHLH
C0100000000000000000LLLLLLLLLLLHLHHLLLLLLLLLLLLHLHHLLLLLLLLLLLLHLHHL
C0000000000000000000LLLLLLLLLLLHLHHLLLLLLLLLLLLHLHHLLLLLLLLLLLLHLHHL
C0000000000000000000LLLLLLLLLLLHLHHLLLLLLLLLLLLHLHHLLLLLLLLLLLLHLHHL
C0100000000000000000LLLLLLLLLLLHLHHHLLLLLLLLLLLHLHHHLLLLLLLLLLLHLHHH
C0100000000000000000LLLLLLLLLLLHHLLLLLLLLLLLLLLHHLLLLLLLLLLLLLLHHLLL
C0100000000000000000LLLLLLLLLLLHHLLHLLLLLLLLLLLHHLLHLLLLLLLLLLLHHLLH
C0100000000000000000LLLLLLLLLLLHHLHLLLLLLLLLLLLHHLHLLLLLLLLLLLLHHLHL
C0100000000000000000LLLLLLLLLLLHHLHHLLLLLLLLLLLHHLHHLLLLLLLLLLLHHLHH
C0100000000000000000LLLLLLLLLLLHHHLLLLLLLLLLLLLHHHLLLLLLLLLLLLLHHHLL
C0100000000000000000LLLLLLLLLLLHHHLHLLLLLLLLLLLHHHLHLLLLLLLLLLLHHHLH
C0100000000000000000LLLLLLLLLLLHHHHLLLLLLLLLLLLHHHHLLLLLLLLLLLLHHHHL
C0100000000000000000LLLLLLLLLLLHHHHHLLLLLLLLLLLHHHHHLLLLLLLLLLLHHHHH
C0100000000000000000LLLLLLLLLLHLLLLLLLLLLLLLLLHLLLLLLLLLLLLLLLHLLLLL
C0100000000000000000LLLLLLLLLLHLLLLHLLLLLLLLLLHLLLLHLLLLLLLLLLHLLLLH
C0100000000000000000LLLLLLLLLLHLLLHLLLLLLLLLLLHLLLHLLLLLLLLLLLHLLLHL
C0000000000000000000LLLLLLLLLLHLLLHLLLLLLLLLLLHLLLHLLLLLLLLLLLHLLLHL
C0100000000000000000LLLLLLLLLLHLLLHHLLLLLLLLLLHLLLHHLLLLLLLLLLHLLLHH
C0100000000000000000LLLLLLLLLLHLLHLLLLLLLLLLLLHLLHLLLLLLLLLLLLHLLHLL
C1000000000011111100LLLLLLLLHHHHHHLLLLLLLLLLLLHLLHLLLLLLLLLLLLHLLHLL
C1000000000011111100LLLLLLLLHHHHHHLLLLLLLLLLHHHHHHLLLLLLLLLLLLHLLHLL
C1000000000011111100LLLLLLLLHHHHHHLLLLLLLLLLHHHHHHLLLLLLLLLLHHHHHHLL
C0100000000011111100LLLLLLLLHHHHHHLHLLLLLLLLHHHHHHLHLLLLLLLLHHHHHHLH
C0100000000011111100LLLLLLLLHHHHHHHLLLLLLLLLHHHHHHHLLLLLLLLLHHHHHHHL
C0100000000011111100LLLLLLLLHHHHHHHHLLLLLLLLHHHHHHHHLLLLLLLLHHHHHHHH
C0100000000011111100LLLLLLLHLLLLLLLLLLLLLLLHLLLLLLLLLLLLLLLHLLLLLLLL
C0100000000011111100LLLLLLLHLLLLLLLHLLLLLLLHLLLLLLLHLLLLLLLHLLLLLLLH
C0100000000011111100LLLLLLLHLLLLLLHLLLLLLLLHLLLLLLHLLLLLLLLHLLLLLLHL
C0100000000011111100LLLLLLLHLLLLLLHHLLLLLLLHLLLLLLHHLLLLLLLHLLLLLLHH
C0100000000011111100LLLLLLLHLLLLLHLLLLLLLLLHLLLLLHLLLLLLLLLHLLLLLHLL
C0100000000011111100LLLLLLLHLLLLLHLHLLLLLLLHLLLLLHLHLLLLLLLHLLLLLHLH
C0100000000011111100LLLLLLLHLLLLLHHLLLLLLLLHLLLLLHHLLLLLLLLHLLLLLHHL
C0100000000011111100LLLLLLLHLLLLLHHHLLLLLLLHLLLLLHHHLLLLLLLHLLLLLHHH
C0100000000011111100LLLLLLLHLLLLHLLLLLLLLLLHLLLLHLLLLLLLLLLHLLLLHLLL
C0100000000011111100LLLLLLLHLLLLHLLHLLLLLLLHLLLLHLLHLLLLLLLHLLLLHLLH
C0100000000011111100LLLLLLLHLLLLHLHLLLLLLLLHLLLLHLHLLLLLLLLHLLLLHLHL
C0100000000011111100LLLLLLLHLLLLHLHHLLLLLLLHLLLLHLHHLLLLLLLHLLLLHLHH
C0100000000011111100LLLLLLLHLLLLHHLLLLLLLLLHLLLLHHLLLLLLLLLHLLLLHHLL
C0100000000011111100LLLLLLLHLLLLHHLHLLLLLLLHLLLLHHLHLLLLLLLHLLLLHHLH
C0100000000011111100LLLLLLLHLLLLHHHLLLLLLLLHLLLLHHHLLLLLLLLHLLLLHHHL
C0100000000011111100LLLLLLLHLLLLHHHHLLLLLLLHLLLLHHHHLLLLLLLHLLLLHHHH
C0100000000011111100LLLLLLLHLLLHLLLLLLLLLLLHLLLHLLLLLLLLLLLHLLLHLLLL
C0100000000011111100LLLLLLLHLLLHLLLHLLLLLLLHLLLHLLLHLLLLLLLHLLLHLLLH
C0100000000011111100LLLLLLLHLLLHLLHLLLLLLLLHLLLHLLHLLLLLLLLHLLLHLLHL
C1000000111111111100LLLLHHHHHHHHHHLLLLLLLLLHLLLHLLHLLLLLLLLHLLLHLLHL
C1000000111111111100LLLLHHHHHHHHHHLLLLLLHHHHHHHHHHLLLLLLLLLHLLLHLLHL
C1000000111111111100LLLLHHHHHHHHHHLLLLLLHHHHHHHHHHLLLLLLHHHHHHHHHHLL
C0100000111111111100LLLLHHHHHHHHHHLHLLLLHHHHHHHHHHLHLLLLHHHHHHHHHHLH
C0100000111111111100LLLLHHHHHHHHHHHLLLLLHHHHHHHHHHHLLLLLHHHHHHHHHHHL
C0100000111111111100LLLLHHHHHHHHHHHHLLLLHHHHHHHHHHHHLLLLHHHHHHHHHHHH
C0000000111111111100LLLLHHHHHHHHHHHHLLLLHHHHHHHHHHHHLLLLHHHHHHHHHHHH
C0000000111111111100LLLLHHHHHHHHHHHHLLLLHHHHHHHHHHHHLLLLHHHHHHHHHHHH
C0100000111111111100LLLHLLLLLLLLLLLLLLLHLLLLLLLLLLLLLLLHLLLLLLLLLLLL
C0100000111111111100LLLHLLLLLLLLLLLHLLLHLLLLLLLLLLLHLLLHLLLLLLLLLLLH
C0100000111111111100LLLHLLLLLLLLLLHLLLLHLLLLLLLLLLHLLLLHLLLLLLLLLLHL
C0100000111111111100LLLHLLLLLLLLLLHHLLLHLLLLLLLLLLHHLLLHLLLLLLLLLLHH
C0100000111111111100LLLHLLLLLLLLLHLLLLLHLLLLLLLLLHLLLLLHLLLLLLLLLHLL
C0100000111111111100LLLHLLLLLLLLLHLHLLLHLLLLLLLLLHLHLLLHLLLLLLLLLHLH
C0100000111111111100LLLHLLLLLLLLLHHLLLLHLLLLLLLLLHHLLLLHLLLLLLLLLHHL
C0100000111111111100LLLHLLLLLLLLLHHHLLLHLLLLLLLLLHHHLLLHLLLLLLLLLHHH
C0100000111111111100LLLHLLLLLLLLHLLLLLLHLLLLLLLLHLLLLLLHLLLLLLLLHLLL
C0100000111111111100LLLHLLLLLLLLHLLHLLLHLLLLLLLLHLLHLLLHLLLLLLLLHLLH
C0100000111111111100LLLHLLLLLLLLHLHLLLLHLLLLLLLLHLHLLLLHLLLLLLLLHLHL
C0100000111111111100LLLHLLLLLLLLHLHHLLLHLLLLLLLLHLHHLLLHLLLLLLLLHLHH
C0100000111111111100LLLHLLLLLLLLHHLLLLLHLLLLLLLLHHLLLLLHLLLLLLLLHHLL
C0100000111111111100LLLHLLLLLLLLHHLHLLLHLLLLLLLLHHLHLLLHLLLLLLLLHHLH
C0100000111111111100LLLHLLLLLLLLHHHLLLLHLLLLLLLLHHHLLLLHLLLLLLLLHHHL
C0100000111111111100LLLHLLLLLLLLHHHHLLLHLLLLLLLLHHHHLLLHLLLLLLLLHHHH
C0100000111111111100LLLHLLLLLLLHLLLLLLLHLLLLLLLHLLLLLLLHLLLLLLLHLLLL
C0100000111111111100LLLHLLLLLLLHLLLHLLLHLLLLLLLHLLLHLLLHLLLLLLLHLLLH
C0100000111111111100LLLHLLLLLLLHLLHLLLLHLLLLLLLHLLHLLLLHLLLLLLLHLLHL
C1001111111111110000HHHHHHHHHHHHLLLLLLLHLLLLLLLHLLHLLLLHLLLLLLLHLLHL
C1001111111111110000HHHHHHHHHHHHLLLLHHHHHHHHHHHHLLLLLLLHLLLLLLLHLLHL
C1001111111111110000HHHHHHHHHHHHLLLLHHHHHHHHHHHHLLLLHHHHHHHHHHHHLLLL
C0101111111111110000HHHHHHHHHHHHLLLHHHHHHHHHHHHHLLLHHHHHHHHHHHHHLLLH
C0101111111111110000HHHHHHHHHHHHLLHLHHHHHHHHHHHHLLHLHHHHHHHHHHHHLLHL
C0101111111111110000HHHHHHHHHHHHLLHHHHHHHHHHHHHHLLHHHHHHHHHHHHHHLLHH
C0101111111111110000HHHHHHHHHHHHLHLLHHHHHHHHHHHHLHLLHHHHHHHHHHHHLHLL
C0101111111111110000HHHHHHHHHHHHLHLHHHHHHHHHHHHHLHLHHHHHHHHHHHHHLHLH
C0101111111111110000HHHHHHHHHHHHLHHLHHHHHHHHHHHHLHHLHHHHHHHHHHHHLHHL
C0101111111111110000HHHHHHHHHHHHLHHHHHHHHHHHHHHHLHHHHHHHHHHHHHHHLHHH
C0101111111111110000HHHHHHHHHHHHHLLLHHHHHHHHHHHHHLLLHHHHHHHHHHHHHLLL
C0101111111111110000HHHHHHHHHHHHHLLHHHHHHHHHHHHHHLLHHHHHHHHHHHHHHLLH
C0101111111111110000HHHHHHHHHHHHHLHLHHHHHHHHHHHHHLHLHHHHHHHHHHHHHLHL
C0101111111111110000HHHHHHHHHHHHHLHHHHHHHHHHHHHHHLHHHHHHHHHHHHHHHLHH
C0101111111111110000HHHHHHHHHHHHHHLLHHHHHHHHHHHHHHLLHHHHHHHHHHHHHHLL
C0101111111111110000HHHHHHHHHHHHHHLHHHHHHHHHHHHHHHLHHHHHHHHHHHHHHHLH
C0101111111111110000HHHHHHHHHHHHHHHLHHHHHHHHHHHHHHHLHHHHHHHHHHHHHHHL
C0101111111111110000HHHHHHHHHHHHHHHHHHHHHHHHHHHHHHHHHHHHHHHHHHHHHHHH
C0101111111111110000LLLLLLLLLLLLLLLLLLLLLLLLLLLLLLLLLLLLLLLLLLLLLLLL
C0101111111111110000LLLLLLLLLLLLLLLHLLLLLLLLLLLLLLLHLLLLLLLLLLLLLLLH
C0101111111111110000LLLLLLLLLLLLLLHLLLLLLLLLLLLLLLHLLLLLLLLLLLLLLLHL
C0101111111111110000LLLLLLLLLLLLLLHHLLLLLLLLLLLLLLHHLLLLLLLLLLLLLLHH
C0101111111111110000LLLLLLLLLLLLLHLLLLLLLLLLLLLLLHLLLLLLLLLLLLLLLHLL
C0101111111111110000LLLLLLLLLLLLLHLHLLLLLLLLLLLLLHLHLLLLLLLLLLLLLHLH
C1001111111111111111HHHHHHHHHHHHHHHHLLLLLLLLLLLLLHLHLLLLLLLLLLLLLHLH
C1001111111111111111HHHHHHHHHHHHHHHHHHHHHHHHHHHHHHHHLLLLLLLLLLLLLHLH
C1001111111111111111HHHHHHHHHHHHHHHHHHHHHHHHHHHHHHHHHHHHHHHHHHHHHHHH
00011111111111111111LLLLLLLLLLLLLLLLLLLLLLLLLLLLLLLLLLLLLLLLLLLLLLLL
