Name     control;
PartNo   atv2500;
Date     12/07/93;
Revision 01;
Designer W. PLD;
Company  Atmel Corporation;
Assembly U00;
Location San Jose;
Device   v2500;


ORDER: CLK, MODE, %1, D7, D6, D5, D4, D3, D2, D1, D0, %1, PRELD, %2, SYNC6, SYNC5, SYNC4, SYNC3, SYNC2, SYNC1, SYNC0, %1, VS, ST1, ST0, RAMWE, RAMOE, ADOE, INCAD, %1, A17, A16, A15, A14, A13, A12, A11, A10, A9, A8, A7, A6, A5, A4, %2, A3, A2, A1, A0, %1, ENDFR; 


VECTORS:
00000000000LLLLLLLLLLHHLLLLLLLLLLLLLLLLLLLLL
C0000000000LLLLLLHLLLHHLLLLLLLLLLLLLLLLLLLLL
C0000000010LLLLLLLLLLHHLLLLLLLLLLLLLLLLLLLLL
C1000000010LLLLLLLLLHHHLLLLLLLLLLLLLLLLLLLLL
C1000000000LLLLLLHLLHHHLLLLLLLLLLLLLLLLLLLLL
C1000000000LLLLLHLLLHHHLLLLLLLLLLLLLLLLLLLLL
C1000000000LLLLLHHLLHHHLLLLLLLLLLLLLLLLLLLLL
C1000000000LLLLHLLLLHHHLLLLLLLLLLLLLLLLLLLLL
C1000000000LLLLHLHLLHHHLLLLLLLLLLLLLLLLLLLLL
C1000000000LLLLHHLLLHHHLLLLLLLLLLLLLLLLLLLLL
C1000000000LLLLHHHLLHHHLLLLLLLLLLLLLLLLLLLLL
C1000000000LLLHLLLLLHHHLLLLLLLLLLLLLLLLLLLLL
C1000000000LLLHLLHLLHHHLLLLLLLLLLLLLLLLLLLLL
C1000000000LLLHLHLLLHHHLLLLLLLLLLLLLLLLLLLLL
C1000000000LLLHLHHLLHHHLLLLLLLLLLLLLLLLLLLLL
C1000000000LLLHHLLLLHHHLLLLLLLLLLLLLLLLLLLLL
C1000000000LLLHHLHLLHHHLLLLLLLLLLLLLLLLLLLLL
C1000000000LLLHHHLLLHHHLLLLLLLLLLLLLLLLLLLLL
C1000000000LLLHHHHLLHHHLLLLLLLLLLLLLLLLLLLLL
C1000000000LLHLLLLLLHHHLLLLLLLLLLLLLLLLLLLLL
C1000000000LLHLLLHLLHHHLLLLLLLLLLLLLLLLLLLLL
C1000000000LLHLLHLLLHHHLLLLLLLLLLLLLLLLLLLLL
C1000000000LLHLLHHLLHHHLLLLLLLLLLLLLLLLLLLLL
C1000000000LLHLHLLLLHHHLLLLLLLLLLLLLLLLLLLLL
C1000000000LLHLHLHLLHHHLLLLLLLLLLLLLLLLLLLLL
C1000000000LLHLHHLLLHHHLLLLLLLLLLLLLLLLLLLLL
C1000000000LLHLHHHLLHHHLLLLLLLLLLLLLLLLLLLLL
C1000000000LLHHLLLLLHHHLLLLLLLLLLLLLLLLLLLLL
C1000000000LLHHLLHLLHHHLLLLLLLLLLLLLLLLLLLLL
C1000000000LLHHLHLLLHHHLLLLLLLLLLLLLLLLLLLLL
C1000000000LLHHLHHLLHHHLLLLLLLLLLLLLLLLLLLLL
C1000000000LLHHHLLLLHHHLLLLLLLLLLLLLLLLLLLLL
C1000000000LLHHHLHLLHHHLLLLLLLLLLLLLLLLLLLLL
C1000000000LLHHHHLLLHHHLLLLLLLLLLLLLLLLLLLLL
C1000000000LLHHHHHLLHHHLLLLLLLLLLLLLLLLLLLLL
C1000000000LHLLLLLLLHHHLLLLLLLLLLLLLLLLLLLLL
C1000000000LHLLLLHLLHHHLLLLLLLLLLLLLLLLLLLLL
C1000000000LHLLLHLLLHHHLLLLLLLLLLLLLLLLLLLLL
C1000000000LHLLLHHLLHHHLLLLLLLLLLLLLLLLLLLLL
C1000000000LHLLHLLLLHHHLLLLLLLLLLLLLLLLLLLLL
C1000000000LHLLHLHLLHHHLLLLLLLLLLLLLLLLLLLLL
C1000000000LHLLHHLLLHHHLLLLLLLLLLLLLLLLLLLLL
C1000000000LHLLHHHLLHHHLLLLLLLLLLLLLLLLLLLLL
C1000000000LHLHLLLLLHHHLLLLLLLLLLLLLLLLLLLLL
C1000000000LHLHLLHLLHHHLLLLLLLLLLLLLLLLLLLLL
C1000000000LHLHLHLLLHHHLLLLLLLLLLLLLLLLLLLLL
C1000000000LHLHLHHLLHHHLLLLLLLLLLLLLLLLLLLLL
C1000000000LHLHHLLLLHHHLLLLLLLLLLLLLLLLLLLLL
C1000000000LHLHHLHLLHHHLLLLLLLLLLLLLLLLLLLLL
C1000000000LHLHHHLLLHHHLLLLLLLLLLLLLLLLLLLLL
C1000000000LHLHHHHLLHHHLLLLLLLLLLLLLLLLLLLLL
C1000000000LHHLLLLLLHHHLLLLLLLLLLLLLLLLLLLLL
C1000000000LHHLLLHLLHHHLLLLLLLLLLLLLLLLLLLLL
C1000000000LHHLLHLLLHHHLLLLLLLLLLLLLLLLLLLLL
C1000000000LHHLLHHLLHHHLLLLLLLLLLLLLLLLLLLLL
C1000000000LHHLHLLLLHHHLLLLLLLLLLLLLLLLLLLLL
C1000000000LHHLHLHLLHHHLLLLLLLLLLLLLLLLLLLLL
C1000000000LHHLHHLLLHHHLLLLLLLLLLLLLLLLLLLLL
C1000000000LHHLHHHLLHHHLLLLLLLLLLLLLLLLLLLLL
C1000000000LHHHLLLLLHHHLLLLLLLLLLLLLLLLLLLLL
C1000000000LHHHLLHLLHHHLLLLLLLLLLLLLLLLLLLLL
C1000000000LHHHLHLLLHHHLLLLLLLLLLLLLLLLLLLLL
C1000000000LHHHLHHLLHHHLLLLLLLLLLLLLLLLLLLLL
C1000000000LHHHHLLLLHHHLLLLLLLLLLLLLLLLLLLLL
C1000000000LHHHHLHLLHHHLLLLLLLLLLLLLLLLLLLLL
C1000000000LHHHHHLLLHHHLLLLLLLLLLLLLLLLLLLLL
C1000000000LHHHHHHLLHHHLLLLLLLLLLLLLLLLLLLLL
C1000000000HLLLLLLLLHHHLLLLLLLLLLLLLLLLLLLLL
C1000000000HLLLLLHLLHHHLLLLLLLLLLLLLLLLLLLLL
C1000000000HLLLLHLLLHHHLLLLLLLLLLLLLLLLLLLLL
C1000000000HLLLLHHLLHHHLLLLLLLLLLLLLLLLLLLLL
C1000000000HLLLHLLLLHHHLLLLLLLLLLLLLLLLLLLLL
C1000000000HLLLHLHLLHHHLLLLLLLLLLLLLLLLLLLLL
C1000000000HLLLHHLLLHHHLLLLLLLLLLLLLLLLLLLLL
C1000000000HLLLHHHLLHHHLLLLLLLLLLLLLLLLLLLLL
C1000000000HLLHLLLLLHHHLLLLLLLLLLLLLLLLLLLLL
C1000000000HLLHLLHLLHHHLLLLLLLLLLLLLLLLLLLLL
C1000000000HLLHLHLLLHHHLLLLLLLLLLLLLLLLLLLLL
C1000000000HLLHLHHLLHHHLLLLLLLLLLLLLLLLLLLLL
C1000000000HLLHHLLLLHHHLLLLLLLLLLLLLLLLLLLLL
C1000000000HLLHHLHLLHHHLLLLLLLLLLLLLLLLLLLLL
C1000000000HLLHHHLLLHHHLLLLLLLLLLLLLLLLLLLLL
C1000000000HLLHHHHLLHHHLLLLLLLLLLLLLLLLLLLLL
C1000000000HLHLLLLLLHHHLLLLLLLLLLLLLLLLLLLLL
C1000000000HLHLLLHLLHHHLLLLLLLLLLLLLLLLLLLLL
C1000000000HLHLLHLLLHHHLLLLLLLLLLLLLLLLLLLLL
C1000000000HLHLLHHLLHHHLLLLLLLLLLLLLLLLLLLLL
C1000000000HLHLHLLLLHHHLLLLLLLLLLLLLLLLLLLLL
C1000000000HLHLHLHLLHHHLLLLLLLLLLLLLLLLLLLLL
C1000000000HLHLHHLLLHHHLLLLLLLLLLLLLLLLLLLLL
C1000000000HLHLHHHLLHHHLLLLLLLLLLLLLLLLLLLLL
C1000000000HLHHLLLLLHHHLLLLLLLLLLLLLLLLLLLLL
C1000000000HLHHLLHLLHHHLLLLLLLLLLLLLLLLLLLLL
C1000000000HLHHLHLLLHHHLLLLLLLLLLLLLLLLLLLLL
C1000000000HLHHLHHLLHHHLLLLLLLLLLLLLLLLLLLLL
C1000000000HLHHHLLLLHHHLLLLLLLLLLLLLLLLLLLLL
C1000000000HLHHHLHLLHHHLLLLLLLLLLLLLLLLLLLLL
C1000000000HLHHHHLLLHHHLLLLLLLLLLLLLLLLLLLLL
C1000000000HLHHHHHLLHHHLLLLLLLLLLLLLLLLLLLLL
C1000000000HHLLLLLLLHHHLLLLLLLLLLLLLLLLLLLLL
C1000000000HHLLLLHLLHHHLLLLLLLLLLLLLLLLLLLLL
C1000000000HHLLLHLLLHHHLLLLLLLLLLLLLLLLLLLLL
C1000000000HHLLLHHLLHHHLLLLLLLLLLLLLLLLLLLLL
C1000000000HHLLHLLLLHHHLLLLLLLLLLLLLLLLLLLLL
C1000000000HHLLHLHLLHHHLLLLLLLLLLLLLLLLLLLLL
C1000000000HHLLHHLLLHHHLLLLLLLLLLLLLLLLLLLLL
C1000000000HHLLHHHLLHHHLLLLLLLLLLLLLLLLLLLLL
C1000000000HHLHLLLLLHHHLLLLLLLLLLLLLLLLLLLLL
C1000000000HHLHLLHLLHHHLLLLLLLLLLLLLLLLLLLLL
C1000000000HHLHLHLLLHHHLLLLLLLLLLLLLLLLLLLLL
C1000000000HHLHLHHLLHHHLLLLLLLLLLLLLLLLLLLLL
C1000000000HHLHHLLLLHHHLLLLLLLLLLLLLLLLLLLLL
C1000000000HHLHHLHLLHHHLLLLLLLLLLLLLLLLLLLLL
C1000000000HHLHHHLLLHHHLLLLLLLLLLLLLLLLLLLLL
C1000000000HHLHHHHLLHHHLLLLLLLLLLLLLLLLLLLLL
C1000000000HHHLLLLLLHHHLLLLLLLLLLLLLLLLLLLLL
C1000000000HHHLLLHLLHHHLLLLLLLLLLLLLLLLLLLLL
C1000000000HHHLLHLLLHHHLLLLLLLLLLLLLLLLLLLLL
C1000000000HHHLLHHLLHHHLLLLLLLLLLLLLLLLLLLLL
C1000000000HHHLHLLLLHHHLLLLLLLLLLLLLLLLLLLLL
C1000000000HHHLHLHLLHHHLLLLLLLLLLLLLLLLLLLLL
C1000000000HHHLHHLLLHHHLLLLLLLLLLLLLLLLLLLLL
C1000000000HHHLHHHLLHHHLLLLLLLLLLLLLLLLLLLLL
C1000000000HHHHLLLLLHHHLLLLLLLLLLLLLLLLLLLLL
C1000000000HHHHLLHLLHHHLLLLLLLLLLLLLLLLLLLLL
C1000000000HHHHLHLLLHHHLLLLLLLLLLLLLLLLLLLLL
C1000000000HHHHLHHLLHHHLLLLLLLLLLLLLLLLLLLLL
C1000000000HHHHHLLLLHHHLLLLLLLLLLLLLLLLLLLLL
C1000000000HHHHHLHLLHHHLLLLLLLLLLLLLLLLLLLLL
C1000000000HHHHHHLLLHHHLLLLLLLLLLLLLLLLLLLLL
C1000000000HHHHHHHHLHHHLLLLLLLLLLLLLLLLLLLLL
C1000000000LLLLLLLLHLLHLHLLLLLLLLLLLLLLLLLLL
C1000000000LLLLLLHLHLLHLHLLLLLLLLLLLLLLLLLHL
C1000000010LLLLLLLLHLLHLHLLLLLLLLLLLLLLLLHLL
C1000000010LLLLLLLLHLLHLHLLLLLLLLLLLLLLLLHHL
C1000000010LLLLLLLLHLLHLHLLLLLLLLLLLLLLLHLLL
C1000000010LLLLLLLLHLLHLHLLLLLLLLLLLLLLLHLHL
C1000000010LLLLLLLLHLLHLHLLLLLLLLLLLLLLLHHLL
C1000000010LLLLLLLLHLLHLHLLLLLLLLLLLLLLLHHHL
C1000000010LLLLLLLLHLLHLHLLLLLLLLLLLLLLHLLLL
C1000000010LLLLLLLLHLLHLHLLLLLLLLLLLLLLHLLHL
C1000000010LLLLLLLLHLLHLHLLLLLLLLLLLLLLHLHLL
C1000000010LLLLLLLLHLLHLHLLLLLLLLLLLLLLHLHHL
C1000000010LLLLLLLLHLLHLHLLLLLLLLLLLLLLHHLLL
C1000000010LLLLLLLLHLLHLHLLLLLLLLLLLLLLHHLHL
C1000000010LLLLLLLLHLLHLHLLLLLLLLLLLLLLHHHLL
C1000000010LLLLLLLLHLLHLHLLLLLLLLLLLLLLHHHHL
C1000000010LLLLLLLLHLLHLHLLLLLLLLLLLLLHLLLLL
C1000000010LLLLLLLLHLLHLHLLLLLLLLLLLLLHLLLHL
C1000000010LLLLLLLLHLLHLHLLLLLLLLLLLLLHLLHLL
C1000000010LLLLLLLLHLLHLHLLLLLLLLLLLLLHLLHHL
C1000000010LLLLLLLLHLLHLHLLLLLLLLLLLLLHLHLLL
C1000000010LLLLLLLLHLLHLHLLLLLLLLLLLLLHLHLHL
C1000000010LLLLLLLLHLLHLHLLLLLLLLLLLLLHLHHLL
C1000000010LLLLLLLLHLLHLHLLLLLLLLLLLLLHLHHHL
C1000000010LLLLLLLLHLLHLHLLLLLLLLLLLLLHHLLLL
C1000000010LLLLLLLLHLLHLHLLLLLLLLLLLLLHHLLHL
C1000000010LLLLLLLLHLLHLHLLLLLLLLLLLLLHHLHLL
C1000000010LLLLLLLLHLLHLHLLLLLLLLLLLLLHHLHHL
C1000000010LLLLLLLLHLLHLHLLLLLLLLLLLLLHHHLLL
C1000000010LLLLLLLLHLLHLHLLLLLLLLLLLLLHHHLHL
C1000000010LLLLLLLLHLLHLHLLLLLLLLLLLLLHHHHLL
C1000000010LLLLLLLLHLLHLHLLLLLLLLLLLLLHHHHHL
C1000000010LLLLLLLLHLLHLHLLLLLLLLLLLLHLLLLLL
C1000000010LLLLLLLLHLLHLHLLLLLLLLLLLLHLLLLHL
C1000000010LLLLLLLLHLLHLHLLLLLLLLLLLLHLLLHLL
C1000000010LLLLLLLLHLLHLHLLLLLLLLLLLLHLLLHHL
C1000000010LLLLLLLLHLLHLHLLLLLLLLLLLLHLLHLLL
C1000000010LLLLLLLLHLLHLHLLLLLLLLLLLLHLLHLHL
C1000000010LLLLLLLLHLLHLHLLLLLLLLLLLLHLLHHLL
C1000000010LLLLLLLLHLLHLHLLLLLLLLLLLLHLLHHHL
C1000000010LLLLLLLLHLLHLHLLLLLLLLLLLLHLHLLLL
C1000000010LLLLLLLLHLLHLHLLLLLLLLLLLLHLHLLHL
C1000000010LLLLLLLLHLLHLHLLLLLLLLLLLLHLHLHLL
C1000000010LLLLLLLLHLLHLHLLLLLLLLLLLLHLHLHHL
C1000000010LLLLLLLLHLLHLHLLLLLLLLLLLLHLHHLLL
C1000000010LLLLLLLLHLLHLHLLLLLLLLLLLLHLHHLHL
C1000000010LLLLLLLLHLLHLHLLLLLLLLLLLLHLHHHLL
C1000000010LLLLLLLLHLLHLHLLLLLLLLLLLLHLHHHHL
C1000000010LLLLLLLLHLLHLHLLLLLLLLLLLLHHLLLLL
C1000000010LLLLLLLLHLLHLHLLLLLLLLLLLLHHLLLHL
C1000000010LLLLLLLLHLLHLHLLLLLLLLLLLLHHLLHLL
C1000000010LLLLLLLLHLLHLHLLLLLLLLLLLLHHLLHHL
C1000000010LLLLLLLLHLLHLHLLLLLLLLLLLLHHLHLLL
C1000000010LLLLLLLLHLLHLHLLLLLLLLLLLLHHLHLHL
C1000000010LLLLLLLLHLLHLHLLLLLLLLLLLLHHLHHLL
C1000000010LLLLLLLLHLLHLHLLLLLLLLLLLLHHLHHHL
C1000000010LLLLLLLLHLLHLHLLLLLLLLLLLLHHHLLLL
C1000000010LLLLLLLLHLLHLHLLLLLLLLLLLLHHHLLHL
C1000000010LLLLLLLLHLLHLHLLLLLLLLLLLLHHHLHLL
C1000000010LLLLLLLLHLLHLHLLLLLLLLLLLLHHHLHHL
C1000000010LLLLLLLLHLLHLHLLLLLLLLLLLLHHHHLLL
C1000000010LLLLLLLLHLLHLHLLLLLLLLLLLLHHHHLHL
C1000000010LLLLLLLLHLLHLHLLLLLLLLLLLLHHHHHLL
C1000000010LLLLLLLLHLLHLHLLLLLLLLLLLLHHHHHHL
C1000000010LLLLLLLLHLLHLHLLLLLLLLLLLHLLLLLLL
C1000000010LLLLLLLLHLLHLHLLLLLLLLLLLHLLLLLHL
C1000000010LLLLLLLLHLLHLHLLLLLLLLLLLHLLLLHLL
C1000000010LLLLLLLLHLLHLHLLLLLLLLLLLHLLLLHHL
C1000000010LLLLLLLLHLLHLHLLLLLLLLLLLHLLLHLLL
C1000000010LLLLLLLLHLLHLHLLLLLLLLLLLHLLLHLHL
C1000000010LLLLLLLLHLLHLHLLLLLLLLLLLHLLLHHLL
C1000000010LLLLLLLLHLLHLHLLLLLLLLLLLHLLLHHHL
C1000000010LLLLLLLLHLLHLHLLLLLLLLLLLHLLHLLLL
C1000000010LLLLLLLLHLLHLHLLLLLLLLLLLHLLHLLHL
C1000000010LLLLLLLLHLLHLHLLLLLLLLLLLHLLHLHLL
C1000000010LLLLLLLLHLLHLHLLLLLLLLLLLHLLHLHHL
C1000000010LLLLLLLLHLLHLHLLLLLLLLLLLHLLHHLLL
C1000000010LLLLLLLLHLLHLHLLLLLLLLLLLHLLHHLHL
C1000000010LLLLLLLLHLLHLHLLLLLLLLLLLHLLHHHLL
C1000000010LLLLLLLLHLLHLHLLLLLLLLLLLHLLHHHHL
C1000000010LLLLLLLLHLLHLHLLLLLLLLLLLHLHLLLLL
C1000000010LLLLLLLLHLLHLHLLLLLLLLLLLHLHLLLHL
C1000000010LLLLLLLLHLLHLHLLLLLLLLLLLHLHLLHLL
C1000000010LLLLLLLLHLLHLHLLLLLLLLLLLHLHLLHHL
C1000000010LLLLLLLLHLLHLHLLLLLLLLLLLHLHLHLLL
C1000000010LLLLLLLLHLLHLHLLLLLLLLLLLHLHLHLHL
C1000000010LLLLLLLLHLLHLHLLLLLLLLLLLHLHLHHLL
C1000000010LLLLLLLLHLLHLHLLLLLLLLLLLHLHLHHHL
C1000000010LLLLLLLLHLLHLHLLLLLLLLLLLHLHHLLLL
C1000000010LLLLLLLLHLLHLHLLLLLLLLLLLHLHHLLHL
C1000000010LLLLLLLLHLLHLHLLLLLLLLLLLHLHHLHLL
C1000000010LLLLLLLLHLLHLHLLLLLLLLLLLHLHHLHHL
C1000000010LLLLLLLLHLLHLHLLLLLLLLLLLHLHHHLLL
C1000000010LLLLLLLLHLLHLHLLLLLLLLLLLHLHHHLHL
C1000000010LLLLLLLLHLLHLHLLLLLLLLLLLHLHHHHLL
C1000000010LLLLLLLLHLLHLHLLLLLLLLLLLHLHHHHHL
C1000000010LLLLLLLLHLLHLHLLLLLLLLLLLHHLLLLLL
C1000000010LLLLLLLLHLLHLHLLLLLLLLLLLHHLLLLHL
C1000000010LLLLLLLLHLLHLHLLLLLLLLLLLHHLLLHLL
C1000000010LLLLLLLLHLLHLHLLLLLLLLLLLHHLLLHHL
C1000000010LLLLLLLLHLLHLHLLLLLLLLLLLHHLLHLLL
C1000000010LLLLLLLLHLLHLHLLLLLLLLLLLHHLLHLHL
C1000000010LLLLLLLLHLLHLHLLLLLLLLLLLHHLLHHLL
C1000000010LLLLLLLLHLLHLHLLLLLLLLLLLHHLLHHHL
C1000000010LLLLLLLLHLLHLHLLLLLLLLLLLHHLHLLLL
C1000000010LLLLLLLLHLLHLHLLLLLLLLLLLHHLHLLHL
C1000000010LLLLLLLLHLLHLHLLLLLLLLLLLHHLHLHLL
C1000000010LLLLLLLLHLLHLHLLLLLLLLLLLHHLHLHHL
C1000000010LLLLLLLLHLLHLHLLLLLLLLLLLHHLHHLLL
C1000000010LLLLLLLLHLLHLHLLLLLLLLLLLHHLHHLHL
C1000000010LLLLLLLLHLLHLHLLLLLLLLLLLHHLHHHLL
C1000000010LLLLLLLLHLLHLHLLLLLLLLLLLHHLHHHHL
C1000000010LLLLLLLLHLLHLHLLLLLLLLLLLHHHLLLLL
C1000000010LLLLLLLLHLLHLHLLLLLLLLLLLHHHLLLHL
C1000000010LLLLLLLLHLLHLHLLLLLLLLLLLHHHLLHLL
C1000000010LLLLLLLLHLLHLHLLLLLLLLLLLHHHLLHHL
C1000000010LLLLLLLLHLLHLHLLLLLLLLLLLHHHLHLLL
C1000000010LLLLLLLLHLLHLHLLLLLLLLLLLHHHLHLHL
C1000000010LLLLLLLLHLLHLHLLLLLLLLLLLHHHLHHLL
C1000000010LLLLLLLLHLLHLHLLLLLLLLLLLHHHLHHHL
C1000000010LLLLLLLLHLLHLHLLLLLLLLLLLHHHHLLLL
C1000000010LLLLLLLLHLLHLHLLLLLLLLLLLHHHHLLHL
C1000000010LLLLLLLLHLLHLHLLLLLLLLLLLHHHHLHLL
C1000000010LLLLLLLLHLLHLHLLLLLLLLLLLHHHHLHHL
C1000000010LLLLLLLLHLLHLHLLLLLLLLLLLHHHHHLLL
C1000000010LLLLLLLLHLLHLHLLLLLLLLLLLHHHHHLHL
C1000000010LLLLLLLLHLLHLHLLLLLLLLLLLHHHHHHLL
C1000000010LLLLLLLLHLLHLHLLLLLLLLLLLHHHHHHHL
C1000000010LLLLLLLLHLLHLHLLLLLLLLLLHLLLLLLLL
C1000000010LLLLLLLLHLLHLHLLLLLLLLLLHLLLLLLHL
C1000000010LLLLLLLLHLLHLHLLLLLLLLLLHLLLLLHLL
C1000000010LLLLLLLLHLLHLHLLLLLLLLLLHLLLLLHHL
C1000000010LLLLLLLLHLLHLHLLLLLLLLLLHLLLLHLLL
C1000000010LLLLLLLLHLLHLHLLLLLLLLLLHLLLLHLHL
C1000000010LLLLLLLLHLLHLHLLLLLLLLLLHLLLLHHLL
C1000000010LLLLLLLLHLLHLHLLLLLLLLLLHLLLLHHHL
C1000000010LLLLLLLLHLLHLHLLLLLLLLLLHLLLHLLLL
C1000000010LLLLLLLLHLLHLHLLLLLLLLLLHLLLHLLHL
C1000000010LLLLLLLLHLLHLHLLLLLLLLLLHLLLHLHLL
C1000000010LLLLLLLLHLLHLHLLLLLLLLLLHLLLHLHHL
C1000000010LLLLLLLLHLLHLHLLLLLLLLLLHLLLHHLLL
C1000000010LLLLLLLLHLLHLHLLLLLLLLLLHLLLHHLHL
C1000000010LLLLLLLLHLLHLHLLLLLLLLLLHLLLHHHLL
C1000000010LLLLLLLLHLLHLHLLLLLLLLLLHLLLHHHHL
C1000000010LLLLLLLLHLLHLHLLLLLLLLLLHLLHLLLLL
C1000000010LLLLLLLLHLLHLHLLLLLLLLLLHLLHLLLHL
C1000000010LLLLLLLLHLLHLHLLLLLLLLLLHLLHLLHLL
C1000000010LLLLLLLLHLLHLHLLLLLLLLLLHLLHLLHHL
C1000000010LLLLLLLLHLLHLHLLLLLLLLLLHLLHLHLLL
C1000000010LLLLLLLLHLLHLHLLLLLLLLLLHLLHLHLHL
C1000000010LLLLLLLLHLLHLHLLLLLLLLLLHLLHLHHLL
C1000000010LLLLLLLLHLLHLHLLLLLLLLLLHLLHLHHHL
C1000000010LLLLLLLLHLLHLHLLLLLLLLLLHLLHHLLLL
C1000000010LLLLLLLLHLLHLHLLLLLLLLLLHLLHHLLHL
C1000000010LLLLLLLLHLLHLHLLLLLLLLLLHLLHHLHLL
C1000000010LLLLLLLLHLLHLHLLLLLLLLLLHLLHHLHHL
C1000000010LLLLLLLLHLLHLHLLLLLLLLLLHLLHHHLLL
C1000000010LLLLLLLLHLLHLHLLLLLLLLLLHLLHHHLHL
C1000000010LLLLLLLLHLLHLHLLLLLLLLLLHLLHHHHLL
C1000000010LLLLLLLLHLLHLHLLLLLLLLLLHLLHHHHHL
C1000000010LLLLLLLLHLLHLHLLLLLLLLLLHLHLLLLLL
C1000000010LLLLLLLLHLLHLHLLLLLLLLLLHLHLLLLHL
C1000000010LLLLLLLLHLLHLHLLLLLLLLLLHLHLLLHLL
C1000000010LLLLLLLLHLLHLHLLLLLLLLLLHLHLLLHHL
C1000000010LLLLLLLLHLLHLHLLLLLLLLLLHLHLLHLLL
C1000000010LLLLLLLLHLLHLHLLLLLLLLLLHLHLLHLHL
C1000000010LLLLLLLLHLLHLHLLLLLLLLLLHLHLLHHLL
C1000000010LLLLLLLLHLLHLHLLLLLLLLLLHLHLLHHHL
C1000000010LLLLLLLLHLLHLHLLLLLLLLLLHLHLHLLLL
C1000000010LLLLLLLLHLLHLHLLLLLLLLLLHLHLHLLHL
C1000000010LLLLLLLLHLLHLHLLLLLLLLLLHLHLHLHLL
C1000000010LLLLLLLLHLLHLHLLLLLLLLLLHLHLHLHHL
C1000000010LLLLLLLLHLLHLHLLLLLLLLLLHLHLHHLLL
C1000000010LLLLLLLLHLLHLHLLLLLLLLLLHLHLHHLHL
C1000000010LLLLLLLLHLLHLHLLLLLLLLLLHLHLHHHLL
C1000000010LLLLLLLLHLLHLHLLLLLLLLLLHLHLHHHHL
C1000000010LLLLLLLLHLLHLHLLLLLLLLLLHLHHLLLLL
C1000000010LLLLLLLLHLLHLHLLLLLLLLLLHLHHLLLHL
C1000000010LLLLLLLLHLLHLHLLLLLLLLLLHLHHLLHLL
C1000000010LLLLLLLLHLLHLHLLLLLLLLLLHLHHLLHHL
C1000000010LLLLLLLLHLLHLHLLLLLLLLLLHLHHLHLLL
C1000000010LLLLLLLLHLLHLHLLLLLLLLLLHLHHLHLHL
C1000000010LLLLLLLLHLLHLHLLLLLLLLLLHLHHLHHLL
C1000000010LLLLLLLLHLLHLHLLLLLLLLLLHLHHLHHHL
C1000000010LLLLLLLLHLLHLHLLLLLLLLLLHLHHHLLLL
C1000000010LLLLLLLLHLLHLHLLLLLLLLLLHLHHHLLHL
C1000000010LLLLLLLLHLLHLHLLLLLLLLLLHLHHHLHLL
C1000000010LLLLLLLLHLLHLHLLLLLLLLLLHLHHHLHHL
C1000000010LLLLLLLLHLLHLHLLLLLLLLLLHLHHHHLLL
C1000000010LLLLLLLLHLLHLHLLLLLLLLLLHLHHHHLHL
C1000000010LLLLLLLLHLLHLHLLLLLLLLLLHLHHHHHLL
C1000000010LLLLLLLLHLLHLHLLLLLLLLLLHLHHHHHHL
C1000000010LLLLLLLLHLLHLHLLLLLLLLLLHHLLLLLLL
C1000000010LLLLLLLLHLLHLHLLLLLLLLLLHHLLLLLHL
C1000000010LLLLLLLLHLLHLHLLLLLLLLLLHHLLLLHLL
C1000000010LLLLLLLLHLLHLHLLLLLLLLLLHHLLLLHHL
C1000000010LLLLLLLLHLLHLHLLLLLLLLLLHHLLLHLLL
C1000000010LLLLLLLLHLLHLHLLLLLLLLLLHHLLLHLHL
C1000000010LLLLLLLLHLLHLHLLLLLLLLLLHHLLLHHLL
C1000000010LLLLLLLLHLLHLHLLLLLLLLLLHHLLLHHHL
C1000000010LLLLLLLLHLLHLHLLLLLLLLLLHHLLHLLLL
C1000000010LLLLLLLLHLLHLHLLLLLLLLLLHHLLHLLHL
C1000000010LLLLLLLLHLLHLHLLLLLLLLLLHHLLHLHLL
C1000000010LLLLLLLLHLLHLHLLLLLLLLLLHHLLHLHHL
C1000000010LLLLLLLLHLLHLHLLLLLLLLLLHHLLHHLLL
C1000000010LLLLLLLLHLLHLHLLLLLLLLLLHHLLHHLHL
C1000000010LLLLLLLLHLLHLHLLLLLLLLLLHHLLHHHLL
C1000000010LLLLLLLLHLLHLHLLLLLLLLLLHHLLHHHHL
C1000000010LLLLLLLLHLLHLHLLLLLLLLLLHHLHLLLLL
C1000000010LLLLLLLLHLLHLHLLLLLLLLLLHHLHLLLHL
C1000000010LLLLLLLLHLLHLHLLLLLLLLLLHHLHLLHLL
C1000000010LLLLLLLLHLLHLHLLLLLLLLLLHHLHLLHHL
C1000000010LLLLLLLLHLLHLHLLLLLLLLLLHHLHLHLLL
C1000000010LLLLLLLLHLLHLHLLLLLLLLLLHHLHLHLHL
C1000000010LLLLLLLLHLLHLHLLLLLLLLLLHHLHLHHLL
C1000000010LLLLLLLLHLLHLHLLLLLLLLLLHHLHLHHHL
C1000000010LLLLLLLLHLLHLHLLLLLLLLLLHHLHHLLLL
C1000000010LLLLLLLLHLLHLHLLLLLLLLLLHHLHHLLHL
C1000000010LLLLLLLLHLLHLHLLLLLLLLLLHHLHHLHLL
C1000000010LLLLLLLLHLLHLHLLLLLLLLLLHHLHHLHHL
C1000000010LLLLLLLLHLLHLHLLLLLLLLLLHHLHHHLLL
C1000000010LLLLLLLLHLLHLHLLLLLLLLLLHHLHHHLHL
C1000000010LLLLLLLLHLLHLHLLLLLLLLLLHHLHHHHLL
C1000000010LLLLLLLLHLLHLHLLLLLLLLLLHHLHHHHHL
C1000000010LLLLLLLLHLLHLHLLLLLLLLLLHHHLLLLLL
C1000000010LLLLLLLLHLLHLHLLLLLLLLLLHHHLLLLHL
C1000000010LLLLLLLLHLLHLHLLLLLLLLLLHHHLLLHLL
C1000000010LLLLLLLLHLLHLHLLLLLLLLLLHHHLLLHHL
C1000000010LLLLLLLLHLLHLHLLLLLLLLLLHHHLLHLLL
C1000000010LLLLLLLLHLLHLHLLLLLLLLLLHHHLLHLHL
C1000000010LLLLLLLLHLLHLHLLLLLLLLLLHHHLLHHLL
C1000000010LLLLLLLLHLLHLHLLLLLLLLLLHHHLLHHHL
C1000000010LLLLLLLLHLLHLHLLLLLLLLLLHHHLHLLLL
C1000000010LLLLLLLLHLLHLHLLLLLLLLLLHHHLHLLHL
C1000000010LLLLLLLLHLLHLHLLLLLLLLLLHHHLHLHLL
C1000000010LLLLLLLLHLLHLHLLLLLLLLLLHHHLHLHHL
C1000000010LLLLLLLLHLLHLHLLLLLLLLLLHHHLHHLLL
C1000000010LLLLLLLLHLLHLHLLLLLLLLLLHHHLHHLHL
C1000000010LLLLLLLLHLLHLHLLLLLLLLLLHHHLHHHLL
C1000000010LLLLLLLLHLLHLHLLLLLLLLLLHHHLHHHHL
C1000000010LLLLLLLLHLLHLHLLLLLLLLLLHHHHLLLLL
C1000000010LLLLLLLLHLLHLHLLLLLLLLLLHHHHLLLHL
C1000000010LLLLLLLLHLLHLHLLLLLLLLLLHHHHLLHLL
C1000000010LLLLLLLLHLLHLHLLLLLLLLLLHHHHLLHHL
C1000000010LLLLLLLLHLLHLHLLLLLLLLLLHHHHLHLLL
C1000000010LLLLLLLLHLLHLHLLLLLLLLLLHHHHLHLHL
C1000000010LLLLLLLLHLLHLHLLLLLLLLLLHHHHLHHLL
C1000000010LLLLLLLLHLLHLHLLLLLLLLLLHHHHLHHHL
C1000000010LLLLLLLLHLLHLHLLLLLLLLLLHHHHHLLLL
C1000000010LLLLLLLLHLLHLHLLLLLLLLLLHHHHHLLHL
C1000000010LLLLLLLLHLLHLHLLLLLLLLLLHHHHHLHLL
C1000000010LLLLLLLLHLLHLHLLLLLLLLLLHHHHHLHHL
C1000000010LLLLLLLLHLLHLHLLLLLLLLLLHHHHHHLLL
C1000000010LLLLLLLLHLLHLHLLLLLLLLLLHHHHHHLHL
C1000000010LLLLLLLLHLLHLHLLLLLLLLLLHHHHHHHLL
C1000000010LLLLLLLLHLLHLHLLLLLLLLLLHHHHHHHHL
C1000000010LLLLLLLLHLLHLHLLLLLLLLLHLLLLLLLLL
C1000000010LLLLLLLLHLLHLHLLLLLLLLLHLLLLLLLHL
C1000000011LLLLLLLLHLLHLHHHHHLHHHLHLLLLLLHLL
C1000000010LLLLLLLLHLLHLHHHHHLHHHLHLLLLLLHHL
C1000000010LLLLLLLLHLLHLHHHHHLHHHLHLLLLLHLLL
C1000000010LLLLLLLLHLLHLHHHHHLHHHLHLLLLLHLHL
C1000000010LLLLLLLLHLLHLHHHHHLHHHLHLLLLLHHLL
C1000000010LLLLLLLLHLLHLHHHHHLHHHLHLLLLLHHHL
C1000000010LLLLLLLLHLLHLHHHHHLHHHLHLLLLHLLLL
C1000000010LLLLLLLLHLLHLHHHHHLHHHLHLLLLHLLHL
C1000000010LLLLLLLLHLLHLHHHHHLHHHLHLLLLHLHLL
C1000000010LLLLLLLLHLLHLHHHHHLHHHLHLLLLHLHHL
C1000000010LLLLLLLLHLLHLHHHHHLHHHLHLLLLHHLLL
C1000000010LLLLLLLLHLLHLHHHHHLHHHLHLLLLHHLHL
C1000000010LLLLLLLLHLLHLHHHHHLHHHLHLLLLHHHLL
C1000000010LLLLLLLLHLLHLHHHHHLHHHLHLLLLHHHHL
C1000000010LLLLLLLLHLLHLHHHHHLHHHLHLLLHLLLLL
C1000000010LLLLLLLLHLLHLHHHHHLHHHLHLLLHLLLHL
C1000000010LLLLLLLLHLLHLHHHHHLHHHLHLLLHLLHLL
C1000000010LLLLLLLLHLLHLHHHHHLHHHLHLLLHLLHHL
C1000000010LLLLLLLLHLLHLHHHHHLHHHLHLLLHLHLLL
C1000000010LLLLLLLLHLLHLHHHHHLHHHLHLLLHLHLHL
C1000000010LLLLLLLLHLLHLHHHHHLHHHLHLLLHLHHLL
C1000000010LLLLLLLLHLLHLHHHHHLHHHLHLLLHLHHHL
C1000000010LLLLLLLLHLLHLHHHHHLHHHLHLLLHHLLLL
C1000000010LLLLLLLLHLLHLHHHHHLHHHLHLLLHHLLHL
C1000000010LLLLLLLLHLLHLHHHHHLHHHLHLLLHHLHLL
C1000000010LLLLLLLLHLLHLHHHHHLHHHLHLLLHHLHHL
C1000000010LLLLLLLLHLLHLHHHHHLHHHLHLLLHHHLLL
C1000000010LLLLLLLLHLLHLHHHHHLHHHLHLLLHHHLHL
C1000000010LLLLLLLLHLLHLHHHHHLHHHLHLLLHHHHLL
C1000000010LLLLLLLLHLLHLHHHHHLHHHLHLLLHHHHHL
C1000000010LLLLLLLLHLLHLHHHHHLHHHLHLLHLLLLLL
C1000000010LLLLLLLLHLLHLHHHHHLHHHLHLLHLLLLHL
C1000000010LLLLLLLLHLLHLHHHHHLHHHLHLLHLLLHLL
C1000000010LLLLLLLLHLLHLHHHHHLHHHLHLLHLLLHHL
C1000000010LLLLLLLLHLLHLHHHHHLHHHLHLLHLLHLLL
C1000000010LLLLLLLLHLLHLHHHHHLHHHLHLLHLLHLHL
C1000000010LLLLLLLLHLLHLHHHHHLHHHLHLLHLLHHLL
C1000000010LLLLLLLLHLLHLHHHHHLHHHLHLLHLLHHHL
C1000000010LLLLLLLLHLLHLHHHHHLHHHLHLLHLHLLLL
C1000000010LLLLLLLLHLLHLHHHHHLHHHLHLLHLHLLHL
C1000000010LLLLLLLLHLLHLHHHHHLHHHLHLLHLHLHLL
C1000000010LLLLLLLLHLLHLHHHHHLHHHLHLLHLHLHHL
C1000000010LLLLLLLLHLLHLHHHHHLHHHLHLLHLHHLLL
C1000000010LLLLLLLLHLLHLHHHHHLHHHLHLLHLHHLHL
C1000000010LLLLLLLLHLLHLHHHHHLHHHLHLLHLHHHLL
C1000000010LLLLLLLLHLLHLHHHHHLHHHLHLLHLHHHHL
C1000000010LLLLLLLLHLLHLHHHHHLHHHLHLLHHLLLLL
C1000000010LLLLLLLLHLLHLHHHHHLHHHLHLLHHLLLHL
C1000000010LLLLLLLLHLLHLHHHHHLHHHLHLLHHLLHLL
C1000000010LLLLLLLLHLLHLHHHHHLHHHLHLLHHLLHHL
C1000000010LLLLLLLLHLLHLHHHHHLHHHLHLLHHLHLLL
C1000000010LLLLLLLLHLLHLHHHHHLHHHLHLLHHLHLHL
C1000000010LLLLLLLLHLLHLHHHHHLHHHLHLLHHLHHLL
C1000000010LLLLLLLLHLLHLHHHHHLHHHLHLLHHLHHHL
C1000000010LLLLLLLLHLLHLHHHHHLHHHLHLLHHHLLLL
C1000000010LLLLLLLLHLLHLHHHHHLHHHLHLLHHHLLHL
C1000000010LLLLLLLLHLLHLHHHHHLHHHLHLLHHHLHLL
C1000000010LLLLLLLLHLLHLHHHHHLHHHLHLLHHHLHHL
C1000000010LLLLLLLLHLLHLHHHHHLHHHLHLLHHHHLLH
C1000000010LLLLLLLLHHHLHHLLLLLLLLLLLLLLLLLLL
C1000000010LLLLLLLLHHHLHHLLLLLLLLLLLLLLLLLHL
C1000000010LLLLLLLLHHHLHHLLLLLLLLLLLLLLLLHLL
